:020000040800F2
:20000000C8240020050100080D0100080F0100081101000813010008150100080000000044
:200020000000000000000000000000001701000819010008000000001B0100081D01000834
:200040001F0100081F0100081F0100081F0100081F0100081F0100081F0100081F01000860
:200060001F0100081F0100081F0100081F0100081F0100081F0100081F0100081F01000840
:200080001F0100081F0100081F0100081F010008930600081F0100081F0100081F010008A7
:2000A0001F0100081F0100081F0100081F0100081F0100081F0100081F0100081F01000800
:2000C0001F0100081F0100081F0100081F0100081F0100081F0100081F0100081F010008E0
:2000E0001F0100081F0100081F010008DFF810D001F0BCF9004800479D130008AFF30080C2
:20010000C82400200648804706480047FEE7FEE7FEE7FEE7FEE7FEE7FEE7FEE7FEE7FEE737
:2001200007020008ED0000080CB50020019000906C48006840F480306A49086000BF69482C
:20014000006800F4003000900198401C0190009818B90198B0F5A06FF1D16248006800F47F
:20016000003010B10120009001E0002000900098012843D15C48006840F010005A49086020
:200180000846006820F0030008600846006840F00200086053484068524948600846406862
:2001A00048600846406840F4806048600846406820F47C1048600846406840F4E8104860DD
:2001C0000846006840F08070086000BF4548006800F000700028F9D04248406820F0030097
:2001E000404948600846406840F00200486000BF3C48406800F00C000828F9D10CBD10B58F
:20020000FFF792FF10BD10B53648006840F0010034490860084640683449084031494860EC
:2002200008460068324908402E4908600846006820F4802008600846406820F4FE004860E4
:200240004FF41F008860FFF7DAFF4FF000602949086010BD10B5002100200022214B5B68E8
:2002600003F00C0121B1042906D0082928D107E0214B224C236027E01F4B204C236023E0D8
:20028000184B5B6803F47010164B5B6803F48032022303EB904022B9194B4343174C236066
:2002A0000DE0104B5B6803F4003323B1144B4343124C236003E0104B4343104C236003E0E9
:2002C0000D4B0E4C236000BF00BF064B5B68C3F303130C4CE15C094B1B68CB40074C23603E
:2002E00010BD000000100240002002400000FFF8FFFFF6FE08ED00E000127A000000002013
:2003000000093D000400002030B500F00F01F94C04EB8103D3F8002C00F0800343B148F63A
:20032000CF731340254605EB8104C4F8003C07E04CF68F731340EF4D05EB8104C4F8003C29
:2003400030BD70B500F00F02EA4D05EB8204D4F8003C00F080045CB101F030045C4048F655
:20036000BF752C40E34E06EB8205C5F8004C0AE001F440545C404BF68F752C40DD4E06EB4F
:200380008205C5F8004C70BD1420012181404209920002F1E022C2F8001100BF704710B5B1
:2003A000D548C06940F40000D349C861FFF7ECFFD148806940F02000CF4988610420CF490E
:2003C0000860CE481038006820F47060CB49103908600846006840F4E060086010BD78B1BE
:2003E0000421C64A121D11600121C54A116000211160121D11604FF4E051121F116005E059
:200400000321BF4A11600421BC4A116070470020BB49091D08604FF41C40091F08603020BA
:20042000B84908800020B64910310860B5480088B54909680860B34800880830B1490880D2
:2004400008460088B04909688860AE4800880830AC4908804FF48050AB490968C8604FF45E
:200460004850A749403908608020A5490C3108607047A348006840F00800A14908600846FE
:20048000006840F004000860704770479C48006820F008009A4908607047704740F080011C
:2004A000974A0C321160704730B93021954A11801146098810311180704710B502469378C2
:2004C00003F00F019088937803F0800353B18D4B1B888D4C246804EB01142360431C23F0A3
:2004E000010020E0874B1B88874C246804EB0114A3603E280ED900F11F0323F01F0001236A
:20050000C3EB401343F400437F4C246804EB0114E36008E0431C23F0010043027A4C2468D0
:2005200004EB0114E360774B1B880344754C2380D37803F0030333B1012B07D0022B08D034
:20054000032B0FD10BE04FF400700BE04FF4806008E0002000230BB140F4807002E04FF4B1
:20056000C06000BF00BF0843624C04EB8103C3F8000C10BD704710B5044643F2200120465B
:20058000FFF7DFFE10BD10B5044600212046FFF7D8FE10BD10B504462046FFF7B5FE10BDA1
:2005A00010B5044641F210012046FFF7CAFE10BD10B504462046FFF7A7FE43F2300120461B
:2005C000FFF7BFFE10BD70472DE9F04305460C4605F00F064C48006800EB061080684B497B
:2005E000022202FB00194848006800EB06108089C0F309074FF0000805E039F8041B2180DF
:20060000A41C08F10108781CB8EB500FF5D34FF440512846FFF795FE3846BDE8F0832DE943
:20062000F04707460D46144607F00F063648006800EB061000683549022202FB001A4FF036
:20064000000805E028884AF8040BAD1C08F10108601CB8EB500FF5D32B48006800EB0610BF
:200660004460244901EB8600D0F8000C1FFA80F909F03000102803D030213846FFF761FE39
:200680002046BDE8F0871E4808300068C0F30A00704770B51A48001D066806F4806040B181
:2006A000FFF7B5FE00F026FA6FF480601449091D086006F4006040B1FFF7DBFE00F01EFA31
:2006C0006FF400600E49091D086006F4805040B1FFF7DCFE00F013FA6FF480500849091D40
:2006E000086006F4007020B16FF400700449091D08604DE000500040001002401014014035
:20070000405C00401800002014000020006000406FF400402249086006F00F04214901EB1C
:200720008400D0F8005C05F40040D8B125F4004048F68F7108401B4A02EB8401C1F8000CD4
:20074000194850F8240068B105F4006028B1164850F824100120884704E0134850F82410FC
:200760000220884705F0800090B125F0800048F68F7108400B4A02EB8401C1F8000C0A48D9
:2007800050F8240020B1084850F824100320884703480068064600F400400028B8D170BD4D
:2007A000445C004000500040CC2A00080020C6490880C6490870C64908704FF00110C549A8
:2007C00008600020C4490860C4490860704710B5C3490020FFF7F8FE10BD10B5C148808870
:2007E000082801DD082401E0BE488488BD48224601688020FFF713FF0446BA480068204436
:20080000B849086008468088001B888010BD10B5B44801680020FFF7D7FE0446B148006869
:200820002044B049086008468088001B888010BD10B5002211468020FFF7F1FE10BD10B558
:20084000A9490020FFF7C0FE10BD10B50446082C6FD2DFE804F06E04EBFC6E6EFBFAFFF7A6
:20086000B6FF9F490978C809FFF784FE9C48C0889C4988809A480078C0F3411010B10128B0
:200880007BD192E0964840780C2877D2DFE800F0060D8A158A1D333A41555E8300F054FE51
:2008A00000B9BAE0FFF799FF7DE0002000F0ACFE00B9B2E0FFF7BCFF75E0012000F0A4FE3C
:2008C00000B9AAE0FFF7B4FF6DE000BF8448007800F01F0030B98248807840F080007B49AE
:2008E000087001E0002001E000BF012000B994E0FFF79EFF57E000F0CBFD00B98DE0FFF7F3
:200900006CFF50E00020FFF74BFE00207549888049E000BF7248007800F01F0018B96C4849
:200920007049086001E0002001E000BF012008B973E0C7E0FFF751FF35E000F0F1FE00B926
:200940006BE0FFF775FF00F0DBF82CE000BF6448007800F01F00012814D15D48007870B1D5
:200960005F48007961490978884208DA5C4800795F4908445B49086003E04DE012E0002041
:2009800004E001E0002001E000BF012000B944E0FFF723FF07E000F09FFF00B93DE0FFF77B
:2009A00047FF00E039E000BF3EE04D48007800F01F0020B1012803D002282BD129E02CE0F7
:2009C0004748007920BB46484078FE280ED0FF281DD14348408840B94148C08828B900F0E7
:2009E000BDF810B1FFF724FF15E010E03C48408860B93B48C088012808D100F0B8F828B1D8
:200A0000394838490860FFF7E8FE04E000BF00BF03E002E001E007E000BF8020FFF7C0FD8F
:200A200000203049888000BF00BF4BE02C480078C00918BB2B48808810B3FFF7E8FE294859
:200A40008088E8B92648007802E037E032E018E0C0F3411010B101280FD100E0DDE720482A
:200A6000007800F01F0020B1012803D0022803D101E0D2E7D1E7D0E7CFE7CEE7FFF7DFFEDD
:200A800020E0174800780121B1EBD01F02D1FFF7A4FE0EE00D48007800F0800048B10B48F0
:200AA000007800F07F000949087008460078FFF7F5FC07E00020FFF77BFD03E08020FFF7EA
:200AC00077FD00BF00BF10BD1C0000201E0000201F000020200000202400002028000020D2
:200AE00040000020380000202E0000202C0000202D00002010B5FFF759FE10BD704770470A
:200B0000704710B5044600F0A3FB10BD10B5044600F0C6FB10BD7047704770477047704794
:200B20007047704770477047704770477047704710B504462046FFF733FD04F0800028B115
:200B400004F00F014FF48030884001E00120A040FE4909680843FD49086010BD0020FC4911
:200B60000860FC490860FC490870012070470020FA4908700120704710B5F9480068402842
:200B800001D9402401E0F6480468F64800682044B0F5005F06D9F3480068C0F500540420CF
:200BA000ED490870F048EF4A1268811822468120FFF735FDEB4800682044EA490860E84808
:200BC0000068001BE6490860E2488068001BE1498860E348006810B90320DF490870DE4877
:200BE0000078022802D00020DA49087310BD10B5DE48D84908600D228120FFF710FD05208A
:200C0000D549087010BD10B5D6480068D84909780844B0F5005F0AD9D24800684042D44930
:200C200008700520CC4908700220FFF781FF002407E0D048005DCB4909682144CA4A5054D0
:200C4000641CCB4800788442F3D3C6480068C84909780844C3490860C1480068C449097836
:200C6000401ABF490860BB488068C1490978401AB8498860BA48006818B1B748007805281A
:200C800004D10020B3490873FFF7B1FF10BD10B5B4480068B64909780844B0F5005F0AD999
:200CA000B04800684042B24908700520AA4908700220FFF73DFF00240DE0AA48006820442C
:200CC000A949085CAB49095D884203D00020AA49086004E0641CA64800788442EDD300BF3D
:200CE000A0480068A249097808449E4908609C4800689F490978401A99490860954880687F
:200D00009B490978401A934988609548006818B191480078052809D19748006808B90120C1
:200D200000E000208B490873FFF761FF10BD10B59248407C01069148807C41EA00418F48C7
:200D4000C07C41EA00208D49097D40EA01046002844908608948C07B2F280CD004DC28287B
:200D600007D02A281ED105E0A8280AD0AA2819D108E000BF00BF8148C17D807D41EA002457
:200D800010E000BF7D48407D01067C48807D41EA00417A48C07D41EA00207849097E40EA32
:200DA000010400BF00BF60026D4908607348806830B9012067490873FFF719FF002010BD5D
:200DC0006E48806866490968884212D06B48007B00F0800018B18120FFF7AAFE02E00220FF
:200DE000FFF7A6FE01205B490873FFF700FF0020E5E70120E3E710B56048806830B90220ED
:200E000054490873FFF7F3FE002010BD5B48007B00F0800048B90220FFF78AFE02204D49FF
:200E20000873FFF7E4FE0020EFE70120EDE710B5524880684E490978884207D84F48007A5B
:200E40004B49087003204449087002E00420424908704748027847498120FFF7E0FB3D48C5
:200E6000806843490978401A3A4988600020087310BD10B54148806858B14048007B00F01E
:200E8000800018B18120FFF753FE02E00220FFF74FFE00202F490873FFF7A9FE10BD10B598
:200EA000FFF7A9FF00B910BD70203249087000204870022088700020C87008714871887116
:200EC0000A20C8710020087248728872C872302008730120487300208873C87308744874F2
:200EE000122023490870FFF7A2FF00BFDBE710B5FFF781FF00B910BD00201E490870802064
:200F00004870002088700120C870202008718020487100208871C8714B2008726520487220
:200F2000692088726C20C8722020087348738873C8734D20087443204874422088745320E3
:200F4000C874542008754D20487519E02400002028000020B7200020540000202E000020FC
:200F6000500000204C00002058000020555342535500002058200020480000209820002093
:200F8000332088753220C8752020087644204876692088767320C8766B2008772020487731
:200FA0008877C877312081F820002E2081F82100302081F82200202081F823002420D049FD
:200FC0000870FFF734FF00BF95E710B5FFF713FF00B910BD0320CB49087000204870887063
:200FE000C8700420C6490870FFF721FF00BFF0E710B5FFF700FF00B910BD0020C149087080
:00000001FF
